{"address":"0x8118f348a7a050d2547e515b3675Ca2E6FE17124","bytecode":"0x60806040523480156200001157600080fd5b5060405162003383380380620033838339818101604052810190620000379190620001f4565b80600073ffffffffffffffffffffffffffffffffffffffff168173ffffffffffffffffffffffffffffffffffffffff1603620000ad5760006040517f1e4fbdf7000000000000000000000000000000000000000000000000000000008152600401620000a4919062000237565b60405180910390fd5b620000be81620000c660201b60201c565b505062000254565b60008060009054906101000a900473ffffffffffffffffffffffffffffffffffffffff169050816000806101000a81548173ffffffffffffffffffffffffffffffffffffffff021916908373ffffffffffffffffffffffffffffffffffffffff1602179055508173ffffffffffffffffffffffffffffffffffffffff168173ffffffffffffffffffffffffffffffffffffffff167f8be0079c531659141344cd1fd0a4f28419497f9722a3daafe3b4186f6b6457e060405160405180910390a35050565b600080fd5b600073ffffffffffffffffffffffffffffffffffffffff82169050919050565b6000620001bc826200018f565b9050919050565b620001ce81620001af565b8114620001da57600080fd5b50565b600081519050620001ee81620001c3565b92915050565b6000602082840312156200020d576200020c6200018a565b5b60006200021d84828501620001dd565b91505092915050565b6200023181620001af565b82525050565b60006020820190506200024e600083018462000226565b92915050565b61311f80620002646000396000f3fe608060405234801561001057600080fd5b506004361061009e5760003560e01c8063a7adb90b11610066578063a7adb90b14610137578063b5466b3514610153578063ca99bd8b1461016f578063f2fde38b1461018b578063f9ca4274146101a75761009e565b806334fe481f146100a35780634365737b146100bf578063715018a6146100db5780638da5cb5b146100e55780639fabb02214610103575b600080fd5b6100bd60048036038101906100b89190612013565b6101dd565b005b6100d960048036038101906100d491906120ba565b61046b565b005b6100e3610712565b005b6100ed610726565b6040516100fa919061217c565b60405180910390f35b61011d60048036038101906101189190612197565b61074f565b60405161012e95949392919061238f565b60405180910390f35b610151600480360381019061014c9190612454565b610b45565b005b61016d600480360381019061016891906120ba565b610fae565b005b61018960048036038101906101849190612571565b6112a5565b005b6101a560048036038101906101a09190612679565b611866565b005b6101c160048036038101906101bc9190612197565b6118ec565b6040516101d4979695949392919061286e565b60405180910390f35b6101e5611dac565b61023286868080601f016020809104026020016040519081016040528093929190818152602001838380828437600081840152601f19601f82011690508083019250505050505050611e33565b15610272576040517f08c379a000000000000000000000000000000000000000000000000000000000815260040161026990612945565b60405180910390fd5b6000600187876040516102869291906129a4565b9081526020016040518091039020905086868260000191826102a9929190612c03565b5084816002018190555083838260030191826102c6929190612c03565b5081816004018190555060008160050160006101000a81548160ff021916908360038111156102f8576102f76126b5565b5b02179055504281600701600401819055508060060160405180608001604052806040518060400160405280600781526020017f4352454154454400000000000000000000000000000000000000000000000000815250815260200186868080601f016020809104026020016040519081016040528093929190818152602001838380828437600081840152601f19601f82011690508083019250505050505050815260200186868080601f016020809104026020016040519081016040528093929190818152602001838380828437600081840152601f19601f82011690508083019250505050505050815260200142815250908060018154018082558091505060019003906000526020600020906004020160009091909190915060008201518160000190816104299190612cd3565b50602082015181600101908161043f9190612cd3565b5060408201518160020190816104559190612cd3565b5060608201518160030155505050505050505050565b610473611dac565b6104c084848080601f016020809104026020016040519081016040528093929190818152602001838380828437600081840152601f19601f82011690508083019250505050505050611e33565b6104ff576040517f08c379a00000000000000000000000000000000000000000000000000000000081526004016104f690612df1565b60405180910390fd5b6000600185856040516105139291906129a4565b90815260200160405180910390209050600081600301805461053490612a26565b80601f016020809104026020016040519081016040528092919081815260200182805461056090612a26565b80156105ad5780601f10610582576101008083540402835291602001916105ad565b820191906000526020600020905b81548152906001019060200180831161059057829003601f168201915b5050505050905083838360030191826105c7929190612c03565b5060028260050160006101000a81548160ff021916908360038111156105f0576105ef6126b5565b5b02179055508160060160405180608001604052806040518060400160405280600b81526020017f5452414e53464552524544000000000000000000000000000000000000000000815250815260200183815260200186868080601f016020809104026020016040519081016040528093929190818152602001838380828437600081840152601f19601f82011690508083019250505050505050815260200142815250908060018154018082558091505060019003906000526020600020906004020160009091909190915060008201518160000190816106d19190612cd3565b5060208201518160010190816106e79190612cd3565b5060408201518160020190816106fd9190612cd3565b50606082015181600301555050505050505050565b61071a611dac565b6107246000611e6c565b565b60008060009054906101000a900473ffffffffffffffffffffffffffffffffffffffff16905090565b60608060608060006107a487878080601f016020809104026020016040519081016040528093929190818152602001838380828437600081840152601f19601f82011690508083019250505050505050611e33565b6107e3576040517f08c379a00000000000000000000000000000000000000000000000000000000081526004016107da90612df1565b60405180910390fd5b6000600188886040516107f79291906129a4565b9081526020016040518091039020905080600701600001816007016001018260070160020183600701600301846007016004015484805480602002602001604051908101604052809291908181526020016000905b828210156108f857838290600052602060002001805461086b90612a26565b80601f016020809104026020016040519081016040528092919081815260200182805461089790612a26565b80156108e45780601f106108b9576101008083540402835291602001916108e4565b820191906000526020600020905b8154815290600101906020018083116108c757829003601f168201915b50505050508152602001906001019061084c565b50505050945083805480602002602001604051908101604052809291908181526020016000905b828210156109cb57838290600052602060002001805461093e90612a26565b80601f016020809104026020016040519081016040528092919081815260200182805461096a90612a26565b80156109b75780601f1061098c576101008083540402835291602001916109b7565b820191906000526020600020905b81548152906001019060200180831161099a57829003601f168201915b50505050508152602001906001019061091f565b50505050935082805480602002602001604051908101604052809291908181526020016000905b82821015610a9e578382906000526020600020018054610a1190612a26565b80601f0160208091040260200160405190810160405280929190818152602001828054610a3d90612a26565b8015610a8a5780601f10610a5f57610100808354040283529160200191610a8a565b820191906000526020600020905b815481529060010190602001808311610a6d57829003601f168201915b5050505050815260200190600101906109f2565b505050509250818054610ab090612a26565b80601f0160208091040260200160405190810160405280929190818152602001828054610adc90612a26565b8015610b295780601f10610afe57610100808354040283529160200191610b29565b820191906000526020600020905b815481529060010190602001808311610b0c57829003601f168201915b5050505050915095509550955095509550509295509295909350565b610b4d611dac565b610b9a8a8a8080601f016020809104026020016040519081016040528093929190818152602001838380828437600081840152601f19601f82011690508083019250505050505050611e33565b610bd9576040517f08c379a0000000000000000000000000000000000000000000000000000000008152600401610bd090612df1565b60405180910390fd5b600060018b8b604051610bed9291906129a4565b9081526020016040518091039020905060005b89899050811015610c8457816007016000018a8a83818110610c2557610c24612e11565b5b9050602002810190610c379190612e4f565b90918060018154018082558091505060019003906000526020600020016000909192909192909192909192509182610c70929190612c03565b508080610c7c90612ee1565b915050610c00565b5060005b87879050811015610d0c5781600701600101888883818110610cad57610cac612e11565b5b9050602002810190610cbf9190612e4f565b90918060018154018082558091505060019003906000526020600020016000909192909192909192909192509182610cf8929190612c03565b508080610d0490612ee1565b915050610c88565b5060005b85859050811015610d945781600701600201868683818110610d3557610d34612e11565b5b9050602002810190610d479190612e4f565b90918060018154018082558091505060019003906000526020600020016000909192909192909192909192509182610d80929190612c03565b508080610d8c90612ee1565b915050610d10565b508282826007016003019182610dab929190612c03565b504281600701600401819055508060060160405180608001604052806040518060400160405280601381526020017f5155414c4954595f434845434b5f4144444544000000000000000000000000008152508152602001836003018054610e1190612a26565b80601f0160208091040260200160405190810160405280929190818152602001828054610e3d90612a26565b8015610e8a5780601f10610e5f57610100808354040283529160200191610e8a565b820191906000526020600020905b815481529060010190602001808311610e6d57829003601f168201915b50505050508152602001836003018054610ea390612a26565b80601f0160208091040260200160405190810160405280929190818152602001828054610ecf90612a26565b8015610f1c5780601f10610ef157610100808354040283529160200191610f1c565b820191906000526020600020905b815481529060010190602001808311610eff57829003601f168201915b505050505081526020014281525090806001815401808255809150506001900390600052602060002090600402016000909190919091506000820151816000019081610f689190612cd3565b506020820151816001019081610f7e9190612cd3565b506040820151816002019081610f949190612cd3565b506060820151816003015550505050505050505050505050565b610fb6611dac565b61100384848080601f016020809104026020016040519081016040528093929190818152602001838380828437600081840152601f19601f82011690508083019250505050505050611e33565b611042576040517f08c379a000000000000000000000000000000000000000000000000000000000815260040161103990612df1565b60405180910390fd5b6000600185856040516110569291906129a4565b90815260200160405180910390209050806007016002018383909180600181540180825580915050600190039060005260206000200160009091929091929091929091925091826110a8929190612c03565b504281600701600401819055508060060160405180608001604052806040518060400160405280601581526020017f5155414c4954595f50524f4f465f555044415445440000000000000000000000815250815260200183600301805461110e90612a26565b80601f016020809104026020016040519081016040528092919081815260200182805461113a90612a26565b80156111875780601f1061115c57610100808354040283529160200191611187565b820191906000526020600020905b81548152906001019060200180831161116a57829003601f168201915b505050505081526020018360030180546111a090612a26565b80601f01602080910402602001604051908101604052809291908181526020018280546111cc90612a26565b80156112195780601f106111ee57610100808354040283529160200191611219565b820191906000526020600020905b8154815290600101906020018083116111fc57829003601f168201915b5050505050815260200142815250908060018154018082558091505060019003906000526020600020906004020160009091909190915060008201518160000190816112659190612cd3565b50602082015181600101908161127b9190612cd3565b5060408201518160020190816112919190612cd3565b506060820151816003015550505050505050565b6112ad611dac565b6112fa88888080601f016020809104026020016040519081016040528093929190818152602001838380828437600081840152601f19601f82011690508083019250505050505050611e33565b611339576040517f08c379a000000000000000000000000000000000000000000000000000000000815260040161133090612f75565b60405180910390fd5b61138686868080601f016020809104026020016040519081016040528093929190818152602001838380828437600081840152601f19601f82011690508083019250505050505050611e33565b156113c6576040517f08c379a00000000000000000000000000000000000000000000000000000000081526004016113bd90612fe1565b60405180910390fd5b6000600189896040516113da9291906129a4565b908152602001604051809103902090508481600201541015611431576040517f08c379a00000000000000000000000000000000000000000000000000000000081526004016114289061304d565b60405180910390fd5b84816002016000828254611445919061306d565b9250508190555060018160050160006101000a81548160ff02191690836003811115611474576114736126b5565b5b021790555060006001888860405161148d9291906129a4565b9081526020016040518091039020905087878260000191826114b0929190612c03565b5089898260010191826114c4929190612c03565b5085816002018190555084848260030191826114e1929190612c03565b5082816004018190555060028160050160006101000a81548160ff02191690836003811115611513576115126126b5565b5b02179055508160060160405180608001604052806040518060400160405280600581526020017f53504c4954000000000000000000000000000000000000000000000000000000815250815260200184600301805461157190612a26565b80601f016020809104026020016040519081016040528092919081815260200182805461159d90612a26565b80156115ea5780601f106115bf576101008083540402835291602001916115ea565b820191906000526020600020905b8154815290600101906020018083116115cd57829003601f168201915b5050505050815260200187878080601f016020809104026020016040519081016040528093929190818152602001838380828437600081840152601f19601f82011690508083019250505050505050815260200142815250908060018154018082558091505060019003906000526020600020906004020160009091909190915060008201518160000190816116809190612cd3565b5060208201518160010190816116969190612cd3565b5060408201518160020190816116ac9190612cd3565b506060820151816003015550508060060160405180608001604052806040518060400160405280601281526020017f435245415445445f46524f4d5f53504c49540000000000000000000000000000815250815260200184600301805461171290612a26565b80601f016020809104026020016040519081016040528092919081815260200182805461173e90612a26565b801561178b5780601f106117605761010080835404028352916020019161178b565b820191906000526020600020905b81548152906001019060200180831161176e57829003601f168201915b5050505050815260200187878080601f016020809104026020016040519081016040528093929190818152602001838380828437600081840152601f19601f82011690508083019250505050505050815260200142815250908060018154018082558091505060019003906000526020600020906004020160009091909190915060008201518160000190816118219190612cd3565b5060208201518160010190816118379190612cd3565b50604082015181600201908161184d9190612cd3565b5060608201518160030155505050505050505050505050565b61186e611dac565b600073ffffffffffffffffffffffffffffffffffffffff168173ffffffffffffffffffffffffffffffffffffffff16036118e05760006040517f1e4fbdf70000000000000000000000000000000000000000000000000000000081526004016118d7919061217c565b60405180910390fd5b6118e981611e6c565b50565b60608060006060600080606061194589898080601f016020809104026020016040519081016040528093929190818152602001838380828437600081840152601f19601f82011690508083019250505050505050611e33565b611984576040517f08c379a000000000000000000000000000000000000000000000000000000000815260040161197b90612df1565b60405180910390fd5b600060018a8a6040516119989291906129a4565b90815260200160405180910390209050806000018160010182600201548360030184600401548560050160009054906101000a900460ff16866006018680546119e090612a26565b80601f0160208091040260200160405190810160405280929190818152602001828054611a0c90612a26565b8015611a595780601f10611a2e57610100808354040283529160200191611a59565b820191906000526020600020905b815481529060010190602001808311611a3c57829003601f168201915b50505050509650858054611a6c90612a26565b80601f0160208091040260200160405190810160405280929190818152602001828054611a9890612a26565b8015611ae55780601f10611aba57610100808354040283529160200191611ae5565b820191906000526020600020905b815481529060010190602001808311611ac857829003601f168201915b50505050509550838054611af890612a26565b80601f0160208091040260200160405190810160405280929190818152602001828054611b2490612a26565b8015611b715780601f10611b4657610100808354040283529160200191611b71565b820191906000526020600020905b815481529060010190602001808311611b5457829003601f168201915b5050505050935080805480602002602001604051908101604052809291908181526020016000905b82821015611d8b5783829060005260206000209060040201604051806080016040529081600082018054611bcc90612a26565b80601f0160208091040260200160405190810160405280929190818152602001828054611bf890612a26565b8015611c455780601f10611c1a57610100808354040283529160200191611c45565b820191906000526020600020905b815481529060010190602001808311611c2857829003601f168201915b50505050508152602001600182018054611c5e90612a26565b80601f0160208091040260200160405190810160405280929190818152602001828054611c8a90612a26565b8015611cd75780601f10611cac57610100808354040283529160200191611cd7565b820191906000526020600020905b815481529060010190602001808311611cba57829003601f168201915b50505050508152602001600282018054611cf090612a26565b80601f0160208091040260200160405190810160405280929190818152602001828054611d1c90612a26565b8015611d695780601f10611d3e57610100808354040283529160200191611d69565b820191906000526020600020905b815481529060010190602001808311611d4c57829003601f168201915b5050505050815260200160038201548152505081526020019060010190611b99565b50505050905097509750975097509750975097505092959891949750929550565b611db4611f30565b73ffffffffffffffffffffffffffffffffffffffff16611dd2610726565b73ffffffffffffffffffffffffffffffffffffffff1614611e3157611df5611f30565b6040517f118cdaa7000000000000000000000000000000000000000000000000000000008152600401611e28919061217c565b60405180910390fd5b565b600080600183604051611e4691906130d2565b90815260200160405180910390206000018054611e6290612a26565b9050119050919050565b60008060009054906101000a900473ffffffffffffffffffffffffffffffffffffffff169050816000806101000a81548173ffffffffffffffffffffffffffffffffffffffff021916908373ffffffffffffffffffffffffffffffffffffffff1602179055508173ffffffffffffffffffffffffffffffffffffffff168173ffffffffffffffffffffffffffffffffffffffff167f8be0079c531659141344cd1fd0a4f28419497f9722a3daafe3b4186f6b6457e060405160405180910390a35050565b600033905090565b600080fd5b600080fd5b600080fd5b600080fd5b600080fd5b60008083601f840112611f6757611f66611f42565b5b8235905067ffffffffffffffff811115611f8457611f83611f47565b5b602083019150836001820283011115611fa057611f9f611f4c565b5b9250929050565b6000819050919050565b611fba81611fa7565b8114611fc557600080fd5b50565b600081359050611fd781611fb1565b92915050565b6000819050919050565b611ff081611fdd565b8114611ffb57600080fd5b50565b60008135905061200d81611fe7565b92915050565b600080600080600080608087890312156120305761202f611f38565b5b600087013567ffffffffffffffff81111561204e5761204d611f3d565b5b61205a89828a01611f51565b9650965050602061206d89828a01611fc8565b945050604087013567ffffffffffffffff81111561208e5761208d611f3d565b5b61209a89828a01611f51565b935093505060606120ad89828a01611ffe565b9150509295509295509295565b600080600080604085870312156120d4576120d3611f38565b5b600085013567ffffffffffffffff8111156120f2576120f1611f3d565b5b6120fe87828801611f51565b9450945050602085013567ffffffffffffffff81111561212157612120611f3d565b5b61212d87828801611f51565b925092505092959194509250565b600073ffffffffffffffffffffffffffffffffffffffff82169050919050565b60006121668261213b565b9050919050565b6121768161215b565b82525050565b6000602082019050612191600083018461216d565b92915050565b600080602083850312156121ae576121ad611f38565b5b600083013567ffffffffffffffff8111156121cc576121cb611f3d565b5b6121d885828601611f51565b92509250509250929050565b600081519050919050565b600082825260208201905092915050565b6000819050602082019050919050565b600081519050919050565b600082825260208201905092915050565b60005b8381101561224a57808201518184015260208101905061222f565b60008484015250505050565b6000601f19601f8301169050919050565b600061227282612210565b61227c818561221b565b935061228c81856020860161222c565b61229581612256565b840191505092915050565b60006122ac8383612267565b905092915050565b6000602082019050919050565b60006122cc826121e4565b6122d681856121ef565b9350836020820285016122e885612200565b8060005b85811015612324578484038952815161230585826122a0565b9450612310836122b4565b925060208a019950506001810190506122ec565b50829750879550505050505092915050565b600082825260208201905092915050565b600061235282612210565b61235c8185612336565b935061236c81856020860161222c565b61237581612256565b840191505092915050565b61238981611fa7565b82525050565b600060a08201905081810360008301526123a981886122c1565b905081810360208301526123bd81876122c1565b905081810360408301526123d181866122c1565b905081810360608301526123e58185612347565b90506123f46080830184612380565b9695505050505050565b60008083601f84011261241457612413611f42565b5b8235905067ffffffffffffffff81111561243157612430611f47565b5b60208301915083602082028301111561244d5761244c611f4c565b5b9250929050565b60008060008060008060008060008060a08b8d03121561247757612476611f38565b5b60008b013567ffffffffffffffff81111561249557612494611f3d565b5b6124a18d828e01611f51565b9a509a505060208b013567ffffffffffffffff8111156124c4576124c3611f3d565b5b6124d08d828e016123fe565b985098505060408b013567ffffffffffffffff8111156124f3576124f2611f3d565b5b6124ff8d828e016123fe565b965096505060608b013567ffffffffffffffff81111561252257612521611f3d565b5b61252e8d828e016123fe565b945094505060808b013567ffffffffffffffff81111561255157612550611f3d565b5b61255d8d828e01611f51565b92509250509295989b9194979a5092959850565b60008060008060008060008060a0898b03121561259157612590611f38565b5b600089013567ffffffffffffffff8111156125af576125ae611f3d565b5b6125bb8b828c01611f51565b9850985050602089013567ffffffffffffffff8111156125de576125dd611f3d565b5b6125ea8b828c01611f51565b965096505060406125fd8b828c01611fc8565b945050606089013567ffffffffffffffff81111561261e5761261d611f3d565b5b61262a8b828c01611f51565b9350935050608061263d8b828c01611ffe565b9150509295985092959890939650565b6126568161215b565b811461266157600080fd5b50565b6000813590506126738161264d565b92915050565b60006020828403121561268f5761268e611f38565b5b600061269d84828501612664565b91505092915050565b6126af81611fdd565b82525050565b7f4e487b7100000000000000000000000000000000000000000000000000000000600052602160045260246000fd5b600481106126f5576126f46126b5565b5b50565b6000819050612706826126e4565b919050565b6000612716826126f8565b9050919050565b6127268161270b565b82525050565b600081519050919050565b600082825260208201905092915050565b6000819050602082019050919050565b61276181611fa7565b82525050565b600060808301600083015184820360008601526127848282612267565b9150506020830151848203602086015261279e8282612267565b915050604083015184820360408601526127b88282612267565b91505060608301516127cd6060860182612758565b508091505092915050565b60006127e48383612767565b905092915050565b6000602082019050919050565b60006128048261272c565b61280e8185612737565b93508360208202850161282085612748565b8060005b8581101561285c578484038952815161283d85826127d8565b9450612848836127ec565b925060208a01995050600181019050612824565b50829750879550505050505092915050565b600060e0820190508181036000830152612888818a612347565b9050818103602083015261289c8189612347565b90506128ab6040830188612380565b81810360608301526128bd8187612347565b90506128cc60808301866126a6565b6128d960a083018561271d565b81810360c08301526128eb81846127f9565b905098975050505050505050565b7f4261746368206578697374730000000000000000000000000000000000000000600082015250565b600061292f600c83612336565b915061293a826128f9565b602082019050919050565b6000602082019050818103600083015261295e81612922565b9050919050565b600081905092915050565b82818337600083830152505050565b600061298b8385612965565b9350612998838584612970565b82840190509392505050565b60006129b182848661297f565b91508190509392505050565b600082905092915050565b7f4e487b7100000000000000000000000000000000000000000000000000000000600052604160045260246000fd5b7f4e487b7100000000000000000000000000000000000000000000000000000000600052602260045260246000fd5b60006002820490506001821680612a3e57607f821691505b602082108103612a5157612a506129f7565b5b50919050565b60008190508160005260206000209050919050565b60006020601f8301049050919050565b600082821b905092915050565b600060088302612ab97fffffffffffffffffffffffffffffffffffffffffffffffffffffffffffffffff82612a7c565b612ac38683612a7c565b95508019841693508086168417925050509392505050565b6000819050919050565b6000612b00612afb612af684611fa7565b612adb565b611fa7565b9050919050565b6000819050919050565b612b1a83612ae5565b612b2e612b2682612b07565b848454612a89565b825550505050565b600090565b612b43612b36565b612b4e818484612b11565b505050565b5b81811015612b7257612b67600082612b3b565b600181019050612b54565b5050565b601f821115612bb757612b8881612a57565b612b9184612a6c565b81016020851015612ba0578190505b612bb4612bac85612a6c565b830182612b53565b50505b505050565b600082821c905092915050565b6000612bda60001984600802612bbc565b1980831691505092915050565b6000612bf38383612bc9565b9150826002028217905092915050565b612c0d83836129bd565b67ffffffffffffffff811115612c2657612c256129c8565b5b612c308254612a26565b612c3b828285612b76565b6000601f831160018114612c6a5760008415612c58578287013590505b612c628582612be7565b865550612cca565b601f198416612c7886612a57565b60005b82811015612ca057848901358255600182019150602085019450602081019050612c7b565b86831015612cbd5784890135612cb9601f891682612bc9565b8355505b6001600288020188555050505b50505050505050565b612cdc82612210565b67ffffffffffffffff811115612cf557612cf46129c8565b5b612cff8254612a26565b612d0a828285612b76565b600060209050601f831160018114612d3d5760008415612d2b578287015190505b612d358582612be7565b865550612d9d565b601f198416612d4b86612a57565b60005b82811015612d7357848901518255600182019150602085019450602081019050612d4e565b86831015612d905784890151612d8c601f891682612bc9565b8355505b6001600288020188555050505b505050505050565b7f4261746368206d697373696e6700000000000000000000000000000000000000600082015250565b6000612ddb600d83612336565b9150612de682612da5565b602082019050919050565b60006020820190508181036000830152612e0a81612dce565b9050919050565b7f4e487b7100000000000000000000000000000000000000000000000000000000600052603260045260246000fd5b600080fd5b600080fd5b600080fd5b60008083356001602003843603038112612e6c57612e6b612e40565b5b80840192508235915067ffffffffffffffff821115612e8e57612e8d612e45565b5b602083019250600182023603831315612eaa57612ea9612e4a565b5b509250929050565b7f4e487b7100000000000000000000000000000000000000000000000000000000600052601160045260246000fd5b6000612eec82611fa7565b91507fffffffffffffffffffffffffffffffffffffffffffffffffffffffffffffffff8203612f1e57612f1d612eb2565b5b600182019050919050565b7f506172656e74206d697373696e67000000000000000000000000000000000000600082015250565b6000612f5f600e83612336565b9150612f6a82612f29565b602082019050919050565b60006020820190508181036000830152612f8e81612f52565b9050919050565b7f4368696c64206578697374730000000000000000000000000000000000000000600082015250565b6000612fcb600c83612336565b9150612fd682612f95565b602082019050919050565b60006020820190508181036000830152612ffa81612fbe565b9050919050565b7f496e73756666696369656e742071747900000000000000000000000000000000600082015250565b6000613037601083612336565b915061304282613001565b602082019050919050565b600060208201905081810360008301526130668161302a565b9050919050565b600061307882611fa7565b915061308383611fa7565b925082820390508181111561309b5761309a612eb2565b5b92915050565b60006130ac82612210565b6130b68185612965565b93506130c681856020860161222c565b80840191505092915050565b60006130de82846130a1565b91508190509291505056fea26469706673582212207cccf137198426b15a3bad65a0b991e71b9ae9b0d734d042baf2be71fd0c7ba464736f6c63430008140033","abi":[{"inputs":[{"internalType":"address","name":"initialOwner","type":"address"}],"stateMutability":"nonpayable","type":"constructor"},{"inputs":[{"internalType":"address","name":"owner","type":"address"}],"name":"OwnableInvalidOwner","type":"error"},{"inputs":[{"internalType":"address","name":"account","type":"address"}],"name":"OwnableUnauthorizedAccount","type":"error"},{"anonymous":false,"inputs":[{"indexed":true,"internalType":"address","name":"previousOwner","type":"address"},{"indexed":true,"internalType":"address","name":"newOwner","type":"address"}],"name":"OwnershipTransferred","type":"event"},{"inputs":[{"internalType":"string","name":"batchId","type":"string"},{"internalType":"string[]","name":"pesticides","type":"string[]"},{"internalType":"string[]","name":"fertilizers","type":"string[]"},{"internalType":"string[]","name":"photos","type":"string[]"},{"internalType":"string","name":"certHash","type":"string"}],"name":"addQualityCheck","outputs":[],"stateMutability":"nonpayable","type":"function"},{"inputs":[{"internalType":"string","name":"batchId","type":"string"},{"internalType":"uint256","name":"quantity","type":"uint256"},{"internalType":"string","name":"farmerId","type":"string"},{"internalType":"bytes32","name":"dataHash","type":"bytes32"}],"name":"createBatch","outputs":[],"stateMutability":"nonpayable","type":"function"},{"inputs":[{"internalType":"string","name":"id","type":"string"}],"name":"getBatch","outputs":[{"internalType":"string","name":"","type":"string"},{"internalType":"string","name":"","type":"string"},{"internalType":"uint256","name":"","type":"uint256"},{"internalType":"string","name":"","type":"string"},{"internalType":"bytes32","name":"","type":"bytes32"},{"internalType":"enum ProduceTraceability.Status","name":"","type":"uint8"},{"components":[{"internalType":"string","name":"action","type":"string"},{"internalType":"string","name":"fromId","type":"string"},{"internalType":"string","name":"toId","type":"string"},{"internalType":"uint256","name":"timestamp","type":"uint256"}],"internalType":"struct ProduceTraceability.EventLog[]","name":"","type":"tuple[]"}],"stateMutability":"view","type":"function"},{"inputs":[{"internalType":"string","name":"id","type":"string"}],"name":"getQualityCheck","outputs":[{"internalType":"string[]","name":"pesticides","type":"string[]"},{"internalType":"string[]","name":"fertilizers","type":"string[]"},{"internalType":"string[]","name":"photos","type":"string[]"},{"internalType":"string","name":"certificationHash","type":"string"},{"internalType":"uint256","name":"lastUpdated","type":"uint256"}],"stateMutability":"view","type":"function"},{"inputs":[],"name":"owner","outputs":[{"internalType":"address","name":"","type":"address"}],"stateMutability":"view","type":"function"},{"inputs":[],"name":"renounceOwnership","outputs":[],"stateMutability":"nonpayable","type":"function"},{"inputs":[{"internalType":"string","name":"parentId","type":"string"},{"internalType":"string","name":"childId","type":"string"},{"internalType":"uint256","name":"qty","type":"uint256"},{"internalType":"string","name":"newHolder","type":"string"},{"internalType":"bytes32","name":"dataHash","type":"bytes32"}],"name":"splitBatch","outputs":[],"stateMutability":"nonpayable","type":"function"},{"inputs":[{"internalType":"string","name":"batchId","type":"string"},{"internalType":"string","name":"toId","type":"string"}],"name":"transferBatch","outputs":[],"stateMutability":"nonpayable","type":"function"},{"inputs":[{"internalType":"address","name":"newOwner","type":"address"}],"name":"transferOwnership","outputs":[],"stateMutability":"nonpayable","type":"function"},{"inputs":[{"internalType":"string","name":"batchId","type":"string"},{"internalType":"string","name":"photoHash","type":"string"}],"name":"updateQualityProof","outputs":[],"stateMutability":"nonpayable","type":"function"}]}